{
  "_format": "hh-sol-artifact-1",
  "contractName": "EmergencyCoordinator",
  "sourceName": "contracts/EmergencyCoordinator.sol",
  "abi": [
    {
      "anonymous": false,
      "inputs": [
        {
          "indexed": true,
          "internalType": "string",
          "name": "emergencyId",
          "type": "string"
        },
        {
          "indexed": true,
          "internalType": "address",
          "name": "patient",
          "type": "address"
        },
        {
          "indexed": false,
          "internalType": "string",
          "name": "location",
          "type": "string"
        },
        {
          "indexed": false,
          "internalType": "uint256",
          "name": "severity",
          "type": "uint256"
        },
        {
          "indexed": false,
          "internalType": "string",
          "name": "emergencyType",
          "type": "string"
        }
      ],
      "name": "EmergencyCreated",
      "type": "event"
    },
    {
      "anonymous": false,
      "inputs": [
        {
          "indexed": true,
          "internalType": "string",
          "name": "emergencyId",
          "type": "string"
        },
        {
          "indexed": false,
          "internalType": "string",
          "name": "hospitalId",
          "type": "string"
        },
        {
          "indexed": false,
          "internalType": "uint256",
          "name": "matchScore",
          "type": "uint256"
        },
        {
          "indexed": false,
          "internalType": "string",
          "name": "oceanJobId",
          "type": "string"
        }
      ],
      "name": "EmergencyMatched",
      "type": "event"
    },
    {
      "anonymous": false,
      "inputs": [
        {
          "indexed": true,
          "internalType": "string",
          "name": "emergencyId",
          "type": "string"
        },
        {
          "indexed": true,
          "internalType": "address",
          "name": "hospital",
          "type": "address"
        }
      ],
      "name": "EmergencyResolved",
      "type": "event"
    },
    {
      "anonymous": false,
      "inputs": [
        {
          "indexed": true,
          "internalType": "address",
          "name": "hospitalAddress",
          "type": "address"
        },
        {
          "indexed": false,
          "internalType": "string",
          "name": "hospitalId",
          "type": "string"
        },
        {
          "indexed": false,
          "internalType": "string",
          "name": "name",
          "type": "string"
        }
      ],
      "name": "HospitalRegistered",
      "type": "event"
    },
    {
      "anonymous": false,
      "inputs": [
        {
          "indexed": true,
          "internalType": "address",
          "name": "previousOwner",
          "type": "address"
        },
        {
          "indexed": true,
          "internalType": "address",
          "name": "newOwner",
          "type": "address"
        }
      ],
      "name": "OwnershipTransferred",
      "type": "event"
    },
    {
      "inputs": [
        {
          "internalType": "string",
          "name": "emergencyId",
          "type": "string"
        },
        {
          "internalType": "string",
          "name": "location",
          "type": "string"
        },
        {
          "internalType": "uint256",
          "name": "severity",
          "type": "uint256"
        },
        {
          "internalType": "string",
          "name": "emergencyType",
          "type": "string"
        }
      ],
      "name": "createEmergency",
      "outputs": [
        {
          "internalType": "bool",
          "name": "",
          "type": "bool"
        }
      ],
      "stateMutability": "nonpayable",
      "type": "function"
    },
    {
      "inputs": [
        {
          "internalType": "string",
          "name": "",
          "type": "string"
        }
      ],
      "name": "emergencies",
      "outputs": [
        {
          "internalType": "string",
          "name": "emergencyId",
          "type": "string"
        },
        {
          "internalType": "address",
          "name": "patient",
          "type": "address"
        },
        {
          "internalType": "string",
          "name": "location",
          "type": "string"
        },
        {
          "internalType": "uint256",
          "name": "severity",
          "type": "uint256"
        },
        {
          "internalType": "string",
          "name": "emergencyType",
          "type": "string"
        },
        {
          "internalType": "string",
          "name": "matchedHospitalId",
          "type": "string"
        },
        {
          "internalType": "uint256",
          "name": "matchScore",
          "type": "uint256"
        },
        {
          "internalType": "uint256",
          "name": "timestamp",
          "type": "uint256"
        },
        {
          "internalType": "bool",
          "name": "isResolved",
          "type": "bool"
        },
        {
          "internalType": "string",
          "name": "oceanJobId",
          "type": "string"
        }
      ],
      "stateMutability": "view",
      "type": "function"
    },
    {
      "inputs": [
        {
          "internalType": "string",
          "name": "emergencyId",
          "type": "string"
        }
      ],
      "name": "getEmergency",
      "outputs": [
        {
          "components": [
            {
              "internalType": "string",
              "name": "emergencyId",
              "type": "string"
            },
            {
              "internalType": "address",
              "name": "patient",
              "type": "address"
            },
            {
              "internalType": "string",
              "name": "location",
              "type": "string"
            },
            {
              "internalType": "uint256",
              "name": "severity",
              "type": "uint256"
            },
            {
              "internalType": "string",
              "name": "emergencyType",
              "type": "string"
            },
            {
              "internalType": "string",
              "name": "matchedHospitalId",
              "type": "string"
            },
            {
              "internalType": "uint256",
              "name": "matchScore",
              "type": "uint256"
            },
            {
              "internalType": "uint256",
              "name": "timestamp",
              "type": "uint256"
            },
            {
              "internalType": "bool",
              "name": "isResolved",
              "type": "bool"
            },
            {
              "internalType": "string",
              "name": "oceanJobId",
              "type": "string"
            }
          ],
          "internalType": "struct EmergencyCoordinator.Emergency",
          "name": "",
          "type": "tuple"
        }
      ],
      "stateMutability": "view",
      "type": "function"
    },
    {
      "inputs": [
        {
          "internalType": "address",
          "name": "hospitalAddress",
          "type": "address"
        }
      ],
      "name": "getHospital",
      "outputs": [
        {
          "components": [
            {
              "internalType": "address",
              "name": "hospitalAddress",
              "type": "address"
            },
            {
              "internalType": "string",
              "name": "hospitalId",
              "type": "string"
            },
            {
              "internalType": "string",
              "name": "name",
              "type": "string"
            },
            {
              "internalType": "bool",
              "name": "isVerified",
              "type": "bool"
            },
            {
              "internalType": "bool",
              "name": "isActive",
              "type": "bool"
            }
          ],
          "internalType": "struct EmergencyCoordinator.Hospital",
          "name": "",
          "type": "tuple"
        }
      ],
      "stateMutability": "view",
      "type": "function"
    },
    {
      "inputs": [
        {
          "internalType": "string",
          "name": "",
          "type": "string"
        }
      ],
      "name": "hospitalIdToAddress",
      "outputs": [
        {
          "internalType": "address",
          "name": "",
          "type": "address"
        }
      ],
      "stateMutability": "view",
      "type": "function"
    },
    {
      "inputs": [
        {
          "internalType": "address",
          "name": "",
          "type": "address"
        }
      ],
      "name": "hospitals",
      "outputs": [
        {
          "internalType": "address",
          "name": "hospitalAddress",
          "type": "address"
        },
        {
          "internalType": "string",
          "name": "hospitalId",
          "type": "string"
        },
        {
          "internalType": "string",
          "name": "name",
          "type": "string"
        },
        {
          "internalType": "bool",
          "name": "isVerified",
          "type": "bool"
        },
        {
          "internalType": "bool",
          "name": "isActive",
          "type": "bool"
        }
      ],
      "stateMutability": "view",
      "type": "function"
    },
    {
      "inputs": [
        {
          "internalType": "string",
          "name": "emergencyId",
          "type": "string"
        }
      ],
      "name": "isEmergencyActive",
      "outputs": [
        {
          "internalType": "bool",
          "name": "",
          "type": "bool"
        }
      ],
      "stateMutability": "view",
      "type": "function"
    },
    {
      "inputs": [],
      "name": "owner",
      "outputs": [
        {
          "internalType": "address",
          "name": "",
          "type": "address"
        }
      ],
      "stateMutability": "view",
      "type": "function"
    },
    {
      "inputs": [
        {
          "internalType": "address",
          "name": "hospitalAddress",
          "type": "address"
        },
        {
          "internalType": "string",
          "name": "hospitalId",
          "type": "string"
        },
        {
          "internalType": "string",
          "name": "name",
          "type": "string"
        }
      ],
      "name": "registerHospital",
      "outputs": [],
      "stateMutability": "nonpayable",
      "type": "function"
    },
    {
      "inputs": [],
      "name": "renounceOwnership",
      "outputs": [],
      "stateMutability": "nonpayable",
      "type": "function"
    },
    {
      "inputs": [
        {
          "internalType": "string",
          "name": "emergencyId",
          "type": "string"
        }
      ],
      "name": "resolveEmergency",
      "outputs": [],
      "stateMutability": "nonpayable",
      "type": "function"
    },
    {
      "inputs": [
        {
          "internalType": "address",
          "name": "newOwner",
          "type": "address"
        }
      ],
      "name": "transferOwnership",
      "outputs": [],
      "stateMutability": "nonpayable",
      "type": "function"
    },
    {
      "inputs": [
        {
          "internalType": "string",
          "name": "emergencyId",
          "type": "string"
        },
        {
          "internalType": "string",
          "name": "hospitalId",
          "type": "string"
        },
        {
          "internalType": "uint256",
          "name": "matchScore",
          "type": "uint256"
        },
        {
          "internalType": "string",
          "name": "oceanJobId",
          "type": "string"
        }
      ],
      "name": "updateEmergencyMatch",
      "outputs": [],
      "stateMutability": "nonpayable",
      "type": "function"
    }
  ],
  "bytecode": "0x60806040523480156200001157600080fd5b5062000032620000266200003f60201b60201c565b6200004760201b60201c565b600180819055506200010b565b600033905090565b60008060009054906101000a900473ffffffffffffffffffffffffffffffffffffffff169050816000806101000a81548173ffffffffffffffffffffffffffffffffffffffff021916908373ffffffffffffffffffffffffffffffffffffffff1602179055508173ffffffffffffffffffffffffffffffffffffffff168173ffffffffffffffffffffffffffffffffffffffff167f8be0079c531659141344cd1fd0a4f28419497f9722a3daafe3b4186f6b6457e060405160405180910390a35050565b612fdd806200011b6000396000f3fe608060405234801561001057600080fd5b50600436106100cf5760003560e01c8063c49b09b51161008c578063ef6666c111610066578063ef6666c11461022d578063f093cf801461025d578063f2fde38b14610291578063f713bfb2146102ad576100cf565b8063c49b09b51461019d578063cfc15760146101cd578063ddf101c2146101fd576100cf565b8063023bfbc3146100d45780631b9eb702146101045780633bba46611461012057806349d41e8314610159578063715018a6146101755780638da5cb5b1461017f575b600080fd5b6100ee60048036038101906100e99190611dee565b6102c9565b6040516100fb9190611e52565b60405180910390f35b61011e60048036038101906101199190611dee565b61033a565b005b61013a60048036038101906101359190611dee565b6105e9565b6040516101509a99989796959493929190611f46565b60405180910390f35b610173600480360381019061016e9190612031565b610928565b005b61017d610c5d565b005b610187610c71565b60405161019491906120bc565b60405180910390f35b6101b760048036038101906101b291906120d7565b610c9a565b6040516101c491906121e9565b60405180910390f35b6101e760048036038101906101e29190612237565b610ea3565b6040516101f49190611e52565b60405180910390f35b61021760048036038101906102129190611dee565b6111c2565b60405161022491906123f7565b60405180910390f35b61024760048036038101906102429190611dee565b611564565b60405161025491906120bc565b60405180910390f35b610277600480360381019061027291906120d7565b6115ad565b604051610288959493929190612419565b60405180910390f35b6102ab60048036038101906102a691906120d7565b61172d565b005b6102c760048036038101906102c29190612237565b6117b0565b005b6000806002836040516102dc91906124b6565b908152602001604051809103902060000180546102f8906124fc565b9050118015610333575060028260405161031291906124b6565b908152602001604051809103902060080160009054906101000a900460ff16155b9050919050565b80600060028260405161034d91906124b6565b90815260200160405180910390206000018054610369906124fc565b9050116103ab576040517f08c379a00000000000000000000000000000000000000000000000000000000081526004016103a290612579565b60405180910390fd5b600360003373ffffffffffffffffffffffffffffffffffffffff1673ffffffffffffffffffffffffffffffffffffffff16815260200190815260200160002060030160009054906101000a900460ff1661043a576040517f08c379a0000000000000000000000000000000000000000000000000000000008152600401610431906125e5565b60405180910390fd5b610442611a3e565b600060028360405161045491906124b6565b908152602001604051809103902090508060050160405161047591906126a8565b6040518091039020600360003373ffffffffffffffffffffffffffffffffffffffff1673ffffffffffffffffffffffffffffffffffffffff1681526020019081526020016000206001016040516104cc91906126a8565b604051809103902014610514576040517f08c379a000000000000000000000000000000000000000000000000000000000815260040161050b90612731565b60405180910390fd5b8060080160009054906101000a900460ff1615610566576040517f08c379a000000000000000000000000000000000000000000000000000000000815260040161055d9061279d565b60405180910390fd5b60018160080160006101000a81548160ff0219169083151502179055503373ffffffffffffffffffffffffffffffffffffffff16836040516105a891906124b6565b60405180910390207f8c870eac5d043f067c59dc370b0c1fcacb0b1bd05138429dc3efa169adc0414060405160405180910390a3506105e5611a8d565b5050565b600281805160208101820180518482526020830160208501208183528095505050505050600091509050806000018054610622906124fc565b80601f016020809104026020016040519081016040528092919081815260200182805461064e906124fc565b801561069b5780601f106106705761010080835404028352916020019161069b565b820191906000526020600020905b81548152906001019060200180831161067e57829003601f168201915b5050505050908060010160009054906101000a900473ffffffffffffffffffffffffffffffffffffffff16908060020180546106d6906124fc565b80601f0160208091040260200160405190810160405280929190818152602001828054610702906124fc565b801561074f5780601f106107245761010080835404028352916020019161074f565b820191906000526020600020905b81548152906001019060200180831161073257829003601f168201915b50505050509080600301549080600401805461076a906124fc565b80601f0160208091040260200160405190810160405280929190818152602001828054610796906124fc565b80156107e35780601f106107b8576101008083540402835291602001916107e3565b820191906000526020600020905b8154815290600101906020018083116107c657829003601f168201915b5050505050908060050180546107f8906124fc565b80601f0160208091040260200160405190810160405280929190818152602001828054610824906124fc565b80156108715780601f1061084657610100808354040283529160200191610871565b820191906000526020600020905b81548152906001019060200180831161085457829003601f168201915b5050505050908060060154908060070154908060080160009054906101000a900460ff16908060090180546108a5906124fc565b80601f01602080910402602001604051908101604052809291908181526020018280546108d1906124fc565b801561091e5780601f106108f35761010080835404028352916020019161091e565b820191906000526020600020905b81548152906001019060200180831161090157829003601f168201915b505050505090508a565b610930611a96565b600073ffffffffffffffffffffffffffffffffffffffff168373ffffffffffffffffffffffffffffffffffffffff160361099f576040517f08c379a000000000000000000000000000000000000000000000000000000000815260040161099690612809565b60405180910390fd5b60008251116109e3576040517f08c379a00000000000000000000000000000000000000000000000000000000081526004016109da90612875565b60405180910390fd5b600360008473ffffffffffffffffffffffffffffffffffffffff1673ffffffffffffffffffffffffffffffffffffffff16815260200190815260200160002060030160009054906101000a900460ff1615610a73576040517f08c379a0000000000000000000000000000000000000000000000000000000008152600401610a6a906128e1565b60405180910390fd5b6040518060a001604052808473ffffffffffffffffffffffffffffffffffffffff16815260200183815260200182815260200160011515815260200160011515815250600360008573ffffffffffffffffffffffffffffffffffffffff1673ffffffffffffffffffffffffffffffffffffffff16815260200190815260200160002060008201518160000160006101000a81548173ffffffffffffffffffffffffffffffffffffffff021916908373ffffffffffffffffffffffffffffffffffffffff1602179055506020820151816001019081610b519190612aad565b506040820151816002019081610b679190612aad565b5060608201518160030160006101000a81548160ff02191690831515021790555060808201518160030160016101000a81548160ff02191690831515021790555090505082600483604051610bbc91906124b6565b908152602001604051809103902060006101000a81548173ffffffffffffffffffffffffffffffffffffffff021916908373ffffffffffffffffffffffffffffffffffffffff1602179055508273ffffffffffffffffffffffffffffffffffffffff167f628ba2fd5877ba0e6d4fb27dcc1d0fe28675ed8d2624e5cb3accda5f4c2250048383604051610c50929190612b7f565b60405180910390a2505050565b610c65611a96565b610c6f6000611b14565b565b60008060009054906101000a900473ffffffffffffffffffffffffffffffffffffffff16905090565b610ca2611be0565b600360008373ffffffffffffffffffffffffffffffffffffffff1673ffffffffffffffffffffffffffffffffffffffff1681526020019081526020016000206040518060a00160405290816000820160009054906101000a900473ffffffffffffffffffffffffffffffffffffffff1673ffffffffffffffffffffffffffffffffffffffff1673ffffffffffffffffffffffffffffffffffffffff168152602001600182018054610d52906124fc565b80601f0160208091040260200160405190810160405280929190818152602001828054610d7e906124fc565b8015610dcb5780601f10610da057610100808354040283529160200191610dcb565b820191906000526020600020905b815481529060010190602001808311610dae57829003601f168201915b50505050508152602001600282018054610de4906124fc565b80601f0160208091040260200160405190810160405280929190818152602001828054610e10906124fc565b8015610e5d5780601f10610e3257610100808354040283529160200191610e5d565b820191906000526020600020905b815481529060010190602001808311610e4057829003601f168201915b505050505081526020016003820160009054906101000a900460ff161515151581526020016003820160019054906101000a900460ff1615151515815250509050919050565b6000610ead611a3e565b6000855111610ef1576040517f08c379a0000000000000000000000000000000000000000000000000000000008152600401610ee890612c02565b60405180910390fd5b60018310158015610f035750600a8311155b610f42576040517f08c379a0000000000000000000000000000000000000000000000000000000008152600401610f3990612c6e565b60405180910390fd5b6000600286604051610f5491906124b6565b90815260200160405180910390206000018054610f70906124fc565b905014610fb2576040517f08c379a0000000000000000000000000000000000000000000000000000000008152600401610fa990612cda565b60405180910390fd5b6040518061014001604052808681526020013373ffffffffffffffffffffffffffffffffffffffff168152602001858152602001848152602001838152602001604051806020016040528060008152508152602001600081526020014281526020016000151581526020016040518060200160405280600081525081525060028660405161104091906124b6565b908152602001604051809103902060008201518160000190816110639190612aad565b5060208201518160010160006101000a81548173ffffffffffffffffffffffffffffffffffffffff021916908373ffffffffffffffffffffffffffffffffffffffff16021790555060408201518160020190816110c09190612aad565b506060820151816003015560808201518160040190816110e09190612aad565b5060a08201518160050190816110f69190612aad565b5060c0820151816006015560e082015181600701556101008201518160080160006101000a81548160ff0219169083151502179055506101208201518160090190816111429190612aad565b509050503373ffffffffffffffffffffffffffffffffffffffff168560405161116b91906124b6565b60405180910390207f84dc7467e91468147f49179fe15b62b2b29f843601d1fd63a0586f93f3f385e28686866040516111a693929190612cfa565b60405180910390a3600190506111ba611a8d565b949350505050565b6111ca611c29565b6002826040516111da91906124b6565b908152602001604051809103902060405180610140016040529081600082018054611204906124fc565b80601f0160208091040260200160405190810160405280929190818152602001828054611230906124fc565b801561127d5780601f106112525761010080835404028352916020019161127d565b820191906000526020600020905b81548152906001019060200180831161126057829003601f168201915b505050505081526020016001820160009054906101000a900473ffffffffffffffffffffffffffffffffffffffff1673ffffffffffffffffffffffffffffffffffffffff1673ffffffffffffffffffffffffffffffffffffffff1681526020016002820180546112ec906124fc565b80601f0160208091040260200160405190810160405280929190818152602001828054611318906124fc565b80156113655780601f1061133a57610100808354040283529160200191611365565b820191906000526020600020905b81548152906001019060200180831161134857829003601f168201915b5050505050815260200160038201548152602001600482018054611388906124fc565b80601f01602080910402602001604051908101604052809291908181526020018280546113b4906124fc565b80156114015780601f106113d657610100808354040283529160200191611401565b820191906000526020600020905b8154815290600101906020018083116113e457829003601f168201915b5050505050815260200160058201805461141a906124fc565b80601f0160208091040260200160405190810160405280929190818152602001828054611446906124fc565b80156114935780601f1061146857610100808354040283529160200191611493565b820191906000526020600020905b81548152906001019060200180831161147657829003601f168201915b5050505050815260200160068201548152602001600782015481526020016008820160009054906101000a900460ff161515151581526020016009820180546114db906124fc565b80601f0160208091040260200160405190810160405280929190818152602001828054611507906124fc565b80156115545780601f1061152957610100808354040283529160200191611554565b820191906000526020600020905b81548152906001019060200180831161153757829003601f168201915b5050505050815250509050919050565b6004818051602081018201805184825260208301602085012081835280955050505050506000915054906101000a900473ffffffffffffffffffffffffffffffffffffffff1681565b60036020528060005260406000206000915090508060000160009054906101000a900473ffffffffffffffffffffffffffffffffffffffff16908060010180546115f6906124fc565b80601f0160208091040260200160405190810160405280929190818152602001828054611622906124fc565b801561166f5780601f106116445761010080835404028352916020019161166f565b820191906000526020600020905b81548152906001019060200180831161165257829003601f168201915b505050505090806002018054611684906124fc565b80601f01602080910402602001604051908101604052809291908181526020018280546116b0906124fc565b80156116fd5780601f106116d2576101008083540402835291602001916116fd565b820191906000526020600020905b8154815290600101906020018083116116e057829003601f168201915b5050505050908060030160009054906101000a900460ff16908060030160019054906101000a900460ff16905085565b611735611a96565b600073ffffffffffffffffffffffffffffffffffffffff168173ffffffffffffffffffffffffffffffffffffffff16036117a4576040517f08c379a000000000000000000000000000000000000000000000000000000000815260040161179b90612db1565b60405180910390fd5b6117ad81611b14565b50565b8360006002826040516117c391906124b6565b908152602001604051809103902060000180546117df906124fc565b905011611821576040517f08c379a000000000000000000000000000000000000000000000000000000000815260040161181890612579565b60405180910390fd5b611829611a3e565b600060028660405161183b91906124b6565b908152602001604051809103902090508060010160009054906101000a900473ffffffffffffffffffffffffffffffffffffffff1673ffffffffffffffffffffffffffffffffffffffff163373ffffffffffffffffffffffffffffffffffffffff1614806118db57506118ac610c71565b73ffffffffffffffffffffffffffffffffffffffff163373ffffffffffffffffffffffffffffffffffffffff16145b61191a576040517f08c379a000000000000000000000000000000000000000000000000000000000815260040161191190612e43565b60405180910390fd5b8060080160009054906101000a900460ff161561196c576040517f08c379a00000000000000000000000000000000000000000000000000000000081526004016119639061279d565b60405180910390fd5b60648411156119b0576040517f08c379a00000000000000000000000000000000000000000000000000000000081526004016119a790612eaf565b60405180910390fd5b848160050190816119c19190612aad565b50838160060181905550828160090190816119dc9190612aad565b50856040516119eb91906124b6565b60405180910390207f66f14c02be61b093414234f2c4d28bbb13037189ec1149705a06625698306a31868686604051611a2693929190612cfa565b60405180910390a250611a37611a8d565b5050505050565b600260015403611a83576040517f08c379a0000000000000000000000000000000000000000000000000000000008152600401611a7a90612f1b565b60405180910390fd5b6002600181905550565b60018081905550565b611a9e611bd8565b73ffffffffffffffffffffffffffffffffffffffff16611abc610c71565b73ffffffffffffffffffffffffffffffffffffffff1614611b12576040517f08c379a0000000000000000000000000000000000000000000000000000000008152600401611b0990612f87565b60405180910390fd5b565b60008060009054906101000a900473ffffffffffffffffffffffffffffffffffffffff169050816000806101000a81548173ffffffffffffffffffffffffffffffffffffffff021916908373ffffffffffffffffffffffffffffffffffffffff1602179055508173ffffffffffffffffffffffffffffffffffffffff168173ffffffffffffffffffffffffffffffffffffffff167f8be0079c531659141344cd1fd0a4f28419497f9722a3daafe3b4186f6b6457e060405160405180910390a35050565b600033905090565b6040518060a00160405280600073ffffffffffffffffffffffffffffffffffffffff16815260200160608152602001606081526020016000151581526020016000151581525090565b60405180610140016040528060608152602001600073ffffffffffffffffffffffffffffffffffffffff168152602001606081526020016000815260200160608152602001606081526020016000815260200160008152602001600015158152602001606081525090565b6000604051905090565b600080fd5b600080fd5b600080fd5b600080fd5b6000601f19601f8301169050919050565b7f4e487b7100000000000000000000000000000000000000000000000000000000600052604160045260246000fd5b611cfb82611cb2565b810181811067ffffffffffffffff82111715611d1a57611d19611cc3565b5b80604052505050565b6000611d2d611c94565b9050611d398282611cf2565b919050565b600067ffffffffffffffff821115611d5957611d58611cc3565b5b611d6282611cb2565b9050602081019050919050565b82818337600083830152505050565b6000611d91611d8c84611d3e565b611d23565b905082815260208101848484011115611dad57611dac611cad565b5b611db8848285611d6f565b509392505050565b600082601f830112611dd557611dd4611ca8565b5b8135611de5848260208601611d7e565b91505092915050565b600060208284031215611e0457611e03611c9e565b5b600082013567ffffffffffffffff811115611e2257611e21611ca3565b5b611e2e84828501611dc0565b91505092915050565b60008115159050919050565b611e4c81611e37565b82525050565b6000602082019050611e676000830184611e43565b92915050565b600081519050919050565b600082825260208201905092915050565b60005b83811015611ea7578082015181840152602081019050611e8c565b60008484015250505050565b6000611ebe82611e6d565b611ec88185611e78565b9350611ed8818560208601611e89565b611ee181611cb2565b840191505092915050565b600073ffffffffffffffffffffffffffffffffffffffff82169050919050565b6000611f1782611eec565b9050919050565b611f2781611f0c565b82525050565b6000819050919050565b611f4081611f2d565b82525050565b6000610140820190508181036000830152611f61818d611eb3565b9050611f70602083018c611f1e565b8181036040830152611f82818b611eb3565b9050611f91606083018a611f37565b8181036080830152611fa38189611eb3565b905081810360a0830152611fb78188611eb3565b9050611fc660c0830187611f37565b611fd360e0830186611f37565b611fe1610100830185611e43565b818103610120830152611ff48184611eb3565b90509b9a5050505050505050505050565b61200e81611f0c565b811461201957600080fd5b50565b60008135905061202b81612005565b92915050565b60008060006060848603121561204a57612049611c9e565b5b60006120588682870161201c565b935050602084013567ffffffffffffffff81111561207957612078611ca3565b5b61208586828701611dc0565b925050604084013567ffffffffffffffff8111156120a6576120a5611ca3565b5b6120b286828701611dc0565b9150509250925092565b60006020820190506120d16000830184611f1e565b92915050565b6000602082840312156120ed576120ec611c9e565b5b60006120fb8482850161201c565b91505092915050565b61210d81611f0c565b82525050565b600082825260208201905092915050565b600061212f82611e6d565b6121398185612113565b9350612149818560208601611e89565b61215281611cb2565b840191505092915050565b61216681611e37565b82525050565b600060a0830160008301516121846000860182612104565b506020830151848203602086015261219c8282612124565b915050604083015184820360408601526121b68282612124565b91505060608301516121cb606086018261215d565b5060808301516121de608086018261215d565b508091505092915050565b60006020820190508181036000830152612203818461216c565b905092915050565b61221481611f2d565b811461221f57600080fd5b50565b6000813590506122318161220b565b92915050565b6000806000806080858703121561225157612250611c9e565b5b600085013567ffffffffffffffff81111561226f5761226e611ca3565b5b61227b87828801611dc0565b945050602085013567ffffffffffffffff81111561229c5761229b611ca3565b5b6122a887828801611dc0565b93505060406122b987828801612222565b925050606085013567ffffffffffffffff8111156122da576122d9611ca3565b5b6122e687828801611dc0565b91505092959194509250565b6122fb81611f2d565b82525050565b600061014083016000830151848203600086015261231f8282612124565b91505060208301516123346020860182612104565b506040830151848203604086015261234c8282612124565b915050606083015161236160608601826122f2565b50608083015184820360808601526123798282612124565b91505060a083015184820360a08601526123938282612124565b91505060c08301516123a860c08601826122f2565b5060e08301516123bb60e08601826122f2565b506101008301516123d061010086018261215d565b506101208301518482036101208601526123ea8282612124565b9150508091505092915050565b600060208201905081810360008301526124118184612301565b905092915050565b600060a08201905061242e6000830188611f1e565b81810360208301526124408187611eb3565b905081810360408301526124548186611eb3565b90506124636060830185611e43565b6124706080830184611e43565b9695505050505050565b600081905092915050565b600061249082611e6d565b61249a818561247a565b93506124aa818560208601611e89565b80840191505092915050565b60006124c28284612485565b915081905092915050565b7f4e487b7100000000000000000000000000000000000000000000000000000000600052602260045260246000fd5b6000600282049050600182168061251457607f821691505b602082108103612527576125266124cd565b5b50919050565b7f456d657267656e637920646f6573206e6f742065786973740000000000000000600082015250565b6000612563601883611e78565b915061256e8261252d565b602082019050919050565b6000602082019050818103600083015261259281612556565b9050919050565b7f4e6f74206120766572696669656420686f73706974616c000000000000000000600082015250565b60006125cf601783611e78565b91506125da82612599565b602082019050919050565b600060208201905081810360008301526125fe816125c2565b9050919050565b600081905092915050565b60008190508160005260206000209050919050565b60008154612632816124fc565b61263c8186612605565b94506001821660008114612657576001811461266c5761269f565b60ff198316865281151582028601935061269f565b61267585612610565b60005b8381101561269757815481890152600182019150602081019050612678565b838801955050505b50505092915050565b60006126b48284612625565b915081905092915050565b7f486f73706974616c206e6f74206d61746368656420746f207468697320656d6560008201527f7267656e63790000000000000000000000000000000000000000000000000000602082015250565b600061271b602683611e78565b9150612726826126bf565b604082019050919050565b6000602082019050818103600083015261274a8161270e565b9050919050565b7f456d657267656e637920616c7265616479207265736f6c766564000000000000600082015250565b6000612787601a83611e78565b915061279282612751565b602082019050919050565b600060208201905081810360008301526127b68161277a565b9050919050565b7f496e76616c696420686f73706974616c20616464726573730000000000000000600082015250565b60006127f3601883611e78565b91506127fe826127bd565b602082019050919050565b60006020820190508181036000830152612822816127e6565b9050919050565b7f486f73706974616c2049442063616e6e6f7420626520656d7074790000000000600082015250565b600061285f601b83611e78565b915061286a82612829565b602082019050919050565b6000602082019050818103600083015261288e81612852565b9050919050565b7f486f73706974616c20616c726561647920726567697374657265640000000000600082015250565b60006128cb601b83611e78565b91506128d682612895565b602082019050919050565b600060208201905081810360008301526128fa816128be565b9050919050565b60008190508160005260206000209050919050565b60006020601f8301049050919050565b600082821b905092915050565b6000600883026129637fffffffffffffffffffffffffffffffffffffffffffffffffffffffffffffffff82612926565b61296d8683612926565b95508019841693508086168417925050509392505050565b6000819050919050565b60006129aa6129a56129a084611f2d565b612985565b611f2d565b9050919050565b6000819050919050565b6129c48361298f565b6129d86129d0826129b1565b848454612933565b825550505050565b600090565b6129ed6129e0565b6129f88184846129bb565b505050565b5b81811015612a1c57612a116000826129e5565b6001810190506129fe565b5050565b601f821115612a6157612a3281612901565b612a3b84612916565b81016020851015612a4a578190505b612a5e612a5685612916565b8301826129fd565b50505b505050565b600082821c905092915050565b6000612a8460001984600802612a66565b1980831691505092915050565b6000612a9d8383612a73565b9150826002028217905092915050565b612ab682611e6d565b67ffffffffffffffff811115612acf57612ace611cc3565b5b612ad982546124fc565b612ae4828285612a20565b600060209050601f831160018114612b175760008415612b05578287015190505b612b0f8582612a91565b865550612b77565b601f198416612b2586612901565b60005b82811015612b4d57848901518255600182019150602085019450602081019050612b28565b86831015612b6a5784890151612b66601f891682612a73565b8355505b6001600288020188555050505b505050505050565b60006040820190508181036000830152612b998185611eb3565b90508181036020830152612bad8184611eb3565b90509392505050565b7f456d657267656e63792049442063616e6e6f7420626520656d70747900000000600082015250565b6000612bec601c83611e78565b9150612bf782612bb6565b602082019050919050565b60006020820190508181036000830152612c1b81612bdf565b9050919050565b7f5365766572697479206d757374206265206265747765656e20312d3130000000600082015250565b6000612c58601d83611e78565b9150612c6382612c22565b602082019050919050565b60006020820190508181036000830152612c8781612c4b565b9050919050565b7f456d657267656e637920616c7265616479206578697374730000000000000000600082015250565b6000612cc4601883611e78565b9150612ccf82612c8e565b602082019050919050565b60006020820190508181036000830152612cf381612cb7565b9050919050565b60006060820190508181036000830152612d148186611eb3565b9050612d236020830185611f37565b8181036040830152612d358184611eb3565b9050949350505050565b7f4f776e61626c653a206e6577206f776e657220697320746865207a65726f206160008201527f6464726573730000000000000000000000000000000000000000000000000000602082015250565b6000612d9b602683611e78565b9150612da682612d3f565b604082019050919050565b60006020820190508181036000830152612dca81612d8e565b9050919050565b7f4e6f7420617574686f72697a656420746f20757064617465207468697320656d60008201527f657267656e637900000000000000000000000000000000000000000000000000602082015250565b6000612e2d602783611e78565b9150612e3882612dd1565b604082019050919050565b60006020820190508181036000830152612e5c81612e20565b9050919050565b7f4d617463682073636f72652063616e6e6f742065786365656420313030000000600082015250565b6000612e99601d83611e78565b9150612ea482612e63565b602082019050919050565b60006020820190508181036000830152612ec881612e8c565b9050919050565b7f5265656e7472616e637947756172643a207265656e7472616e742063616c6c00600082015250565b6000612f05601f83611e78565b9150612f1082612ecf565b602082019050919050565b60006020820190508181036000830152612f3481612ef8565b9050919050565b7f4f776e61626c653a2063616c6c6572206973206e6f7420746865206f776e6572600082015250565b6000612f71602083611e78565b9150612f7c82612f3b565b602082019050919050565b60006020820190508181036000830152612fa081612f64565b905091905056fea26469706673582212204efd7ee3ee082da379a9b3cc8c98796c23a256d418d153b2c1f8e3959871084964736f6c63430008130033",
  "linkReferences": {},
  "deployedLinkReferences": {}
}