{
  "_format": "hh-sol-artifact-1",
  "contractName": "HospitalRegistry",
  "sourceName": "contracts/HospitalRegistry.sol",
  "abi": [
    {
      "anonymous": false,
      "inputs": [
        {
          "indexed": true,
          "internalType": "address",
          "name": "hospital",
          "type": "address"
        },
        {
          "indexed": false,
          "internalType": "uint256",
          "name": "icuBeds",
          "type": "uint256"
        },
        {
          "indexed": false,
          "internalType": "uint256",
          "name": "emergencyBeds",
          "type": "uint256"
        },
        {
          "indexed": false,
          "internalType": "uint256",
          "name": "ventilators",
          "type": "uint256"
        },
        {
          "indexed": false,
          "internalType": "uint256",
          "name": "timestamp",
          "type": "uint256"
        }
      ],
      "name": "CapacityUpdated",
      "type": "event"
    },
    {
      "anonymous": false,
      "inputs": [
        {
          "indexed": true,
          "internalType": "address",
          "name": "hospital",
          "type": "address"
        },
        {
          "indexed": false,
          "internalType": "string",
          "name": "name",
          "type": "string"
        },
        {
          "indexed": false,
          "internalType": "string",
          "name": "location",
          "type": "string"
        }
      ],
      "name": "HospitalRegistered",
      "type": "event"
    },
    {
      "anonymous": false,
      "inputs": [
        {
          "indexed": true,
          "internalType": "address",
          "name": "hospital",
          "type": "address"
        }
      ],
      "name": "HospitalVerified",
      "type": "event"
    },
    {
      "anonymous": false,
      "inputs": [
        {
          "indexed": true,
          "internalType": "address",
          "name": "hospital",
          "type": "address"
        },
        {
          "indexed": false,
          "internalType": "string",
          "name": "specialistType",
          "type": "string"
        },
        {
          "indexed": false,
          "internalType": "uint256",
          "name": "count",
          "type": "uint256"
        },
        {
          "indexed": false,
          "internalType": "uint256",
          "name": "timestamp",
          "type": "uint256"
        }
      ],
      "name": "MedicalPersonnelUpdated",
      "type": "event"
    },
    {
      "anonymous": false,
      "inputs": [
        {
          "indexed": true,
          "internalType": "address",
          "name": "previousOwner",
          "type": "address"
        },
        {
          "indexed": true,
          "internalType": "address",
          "name": "newOwner",
          "type": "address"
        }
      ],
      "name": "OwnershipTransferred",
      "type": "event"
    },
    {
      "anonymous": false,
      "inputs": [
        {
          "indexed": true,
          "internalType": "address",
          "name": "updater",
          "type": "address"
        },
        {
          "indexed": true,
          "internalType": "address",
          "name": "hospital",
          "type": "address"
        }
      ],
      "name": "UpdaterAuthorized",
      "type": "event"
    },
    {
      "inputs": [
        {
          "internalType": "address",
          "name": "updater",
          "type": "address"
        }
      ],
      "name": "authorizeUpdater",
      "outputs": [],
      "stateMutability": "nonpayable",
      "type": "function"
    },
    {
      "inputs": [
        {
          "internalType": "address",
          "name": "",
          "type": "address"
        }
      ],
      "name": "authorizedUpdaters",
      "outputs": [
        {
          "internalType": "bool",
          "name": "",
          "type": "bool"
        }
      ],
      "stateMutability": "view",
      "type": "function"
    },
    {
      "inputs": [
        {
          "internalType": "address",
          "name": "",
          "type": "address"
        },
        {
          "internalType": "uint256",
          "name": "",
          "type": "uint256"
        }
      ],
      "name": "capacityHistory",
      "outputs": [
        {
          "internalType": "uint256",
          "name": "timestamp",
          "type": "uint256"
        },
        {
          "internalType": "uint256",
          "name": "icuBeds",
          "type": "uint256"
        },
        {
          "internalType": "uint256",
          "name": "emergencyBeds",
          "type": "uint256"
        },
        {
          "internalType": "uint256",
          "name": "ventilators",
          "type": "uint256"
        }
      ],
      "stateMutability": "view",
      "type": "function"
    },
    {
      "inputs": [],
      "name": "getAllHospitals",
      "outputs": [
        {
          "internalType": "address[]",
          "name": "addresses",
          "type": "address[]"
        },
        {
          "components": [
            {
              "internalType": "string",
              "name": "name",
              "type": "string"
            },
            {
              "internalType": "uint256",
              "name": "icuBeds",
              "type": "uint256"
            },
            {
              "internalType": "uint256",
              "name": "emergencyBeds",
              "type": "uint256"
            },
            {
              "internalType": "uint256",
              "name": "ventilators",
              "type": "uint256"
            },
            {
              "internalType": "uint256",
              "name": "lastUpdated",
              "type": "uint256"
            },
            {
              "internalType": "bool",
              "name": "verified",
              "type": "bool"
            },
            {
              "internalType": "string[]",
              "name": "specializations",
              "type": "string[]"
            },
            {
              "internalType": "string",
              "name": "location",
              "type": "string"
            },
            {
              "internalType": "string",
              "name": "phoneNumber",
              "type": "string"
            },
            {
              "internalType": "uint256",
              "name": "personnelLastUpdated",
              "type": "uint256"
            }
          ],
          "internalType": "struct HospitalRegistry.HospitalCapacity[]",
          "name": "capacities",
          "type": "tuple[]"
        }
      ],
      "stateMutability": "view",
      "type": "function"
    },
    {
      "inputs": [
        {
          "internalType": "string",
          "name": "emergencyType",
          "type": "string"
        },
        {
          "internalType": "uint256",
          "name": "minBeds",
          "type": "uint256"
        }
      ],
      "name": "getAvailableHospitals",
      "outputs": [
        {
          "internalType": "address[]",
          "name": "",
          "type": "address[]"
        }
      ],
      "stateMutability": "view",
      "type": "function"
    },
    {
      "inputs": [
        {
          "internalType": "address",
          "name": "hospitalAddress",
          "type": "address"
        },
        {
          "internalType": "uint256",
          "name": "limit",
          "type": "uint256"
        }
      ],
      "name": "getCapacityHistory",
      "outputs": [
        {
          "components": [
            {
              "internalType": "uint256",
              "name": "timestamp",
              "type": "uint256"
            },
            {
              "internalType": "uint256",
              "name": "icuBeds",
              "type": "uint256"
            },
            {
              "internalType": "uint256",
              "name": "emergencyBeds",
              "type": "uint256"
            },
            {
              "internalType": "uint256",
              "name": "ventilators",
              "type": "uint256"
            }
          ],
          "internalType": "struct HospitalRegistry.CapacityUpdate[]",
          "name": "",
          "type": "tuple[]"
        }
      ],
      "stateMutability": "view",
      "type": "function"
    },
    {
      "inputs": [],
      "name": "getHospitalCount",
      "outputs": [
        {
          "internalType": "uint256",
          "name": "",
          "type": "uint256"
        }
      ],
      "stateMutability": "view",
      "type": "function"
    },
    {
      "inputs": [
        {
          "internalType": "address",
          "name": "hospitalAddress",
          "type": "address"
        },
        {
          "internalType": "string",
          "name": "specialistType",
          "type": "string"
        }
      ],
      "name": "getPersonnelCount",
      "outputs": [
        {
          "internalType": "uint256",
          "name": "",
          "type": "uint256"
        }
      ],
      "stateMutability": "view",
      "type": "function"
    },
    {
      "inputs": [
        {
          "internalType": "address",
          "name": "hospitalAddress",
          "type": "address"
        },
        {
          "internalType": "uint256",
          "name": "limit",
          "type": "uint256"
        }
      ],
      "name": "getPersonnelHistory",
      "outputs": [
        {
          "components": [
            {
              "internalType": "uint256",
              "name": "timestamp",
              "type": "uint256"
            },
            {
              "internalType": "string",
              "name": "specialistType",
              "type": "string"
            },
            {
              "internalType": "uint256",
              "name": "count",
              "type": "uint256"
            }
          ],
          "internalType": "struct HospitalRegistry.PersonnelUpdate[]",
          "name": "",
          "type": "tuple[]"
        }
      ],
      "stateMutability": "view",
      "type": "function"
    },
    {
      "inputs": [
        {
          "internalType": "uint256",
          "name": "",
          "type": "uint256"
        }
      ],
      "name": "hospitalAddresses",
      "outputs": [
        {
          "internalType": "address",
          "name": "",
          "type": "address"
        }
      ],
      "stateMutability": "view",
      "type": "function"
    },
    {
      "inputs": [
        {
          "internalType": "address",
          "name": "",
          "type": "address"
        },
        {
          "internalType": "string",
          "name": "",
          "type": "string"
        }
      ],
      "name": "hospitalMedicalPersonnel",
      "outputs": [
        {
          "internalType": "uint256",
          "name": "",
          "type": "uint256"
        }
      ],
      "stateMutability": "view",
      "type": "function"
    },
    {
      "inputs": [
        {
          "internalType": "address",
          "name": "",
          "type": "address"
        }
      ],
      "name": "hospitals",
      "outputs": [
        {
          "internalType": "string",
          "name": "name",
          "type": "string"
        },
        {
          "internalType": "uint256",
          "name": "icuBeds",
          "type": "uint256"
        },
        {
          "internalType": "uint256",
          "name": "emergencyBeds",
          "type": "uint256"
        },
        {
          "internalType": "uint256",
          "name": "ventilators",
          "type": "uint256"
        },
        {
          "internalType": "uint256",
          "name": "lastUpdated",
          "type": "uint256"
        },
        {
          "internalType": "bool",
          "name": "verified",
          "type": "bool"
        },
        {
          "internalType": "string",
          "name": "location",
          "type": "string"
        },
        {
          "internalType": "string",
          "name": "phoneNumber",
          "type": "string"
        },
        {
          "internalType": "uint256",
          "name": "personnelLastUpdated",
          "type": "uint256"
        }
      ],
      "stateMutability": "view",
      "type": "function"
    },
    {
      "inputs": [],
      "name": "owner",
      "outputs": [
        {
          "internalType": "address",
          "name": "",
          "type": "address"
        }
      ],
      "stateMutability": "view",
      "type": "function"
    },
    {
      "inputs": [
        {
          "internalType": "address",
          "name": "",
          "type": "address"
        },
        {
          "internalType": "uint256",
          "name": "",
          "type": "uint256"
        }
      ],
      "name": "personnelHistory",
      "outputs": [
        {
          "internalType": "uint256",
          "name": "timestamp",
          "type": "uint256"
        },
        {
          "internalType": "string",
          "name": "specialistType",
          "type": "string"
        },
        {
          "internalType": "uint256",
          "name": "count",
          "type": "uint256"
        }
      ],
      "stateMutability": "view",
      "type": "function"
    },
    {
      "inputs": [
        {
          "internalType": "address",
          "name": "hospitalAddress",
          "type": "address"
        },
        {
          "internalType": "string",
          "name": "name",
          "type": "string"
        },
        {
          "internalType": "string",
          "name": "location",
          "type": "string"
        },
        {
          "internalType": "string[]",
          "name": "specializations",
          "type": "string[]"
        },
        {
          "internalType": "string",
          "name": "phoneNumber",
          "type": "string"
        }
      ],
      "name": "registerHospital",
      "outputs": [],
      "stateMutability": "nonpayable",
      "type": "function"
    },
    {
      "inputs": [],
      "name": "renounceOwnership",
      "outputs": [],
      "stateMutability": "nonpayable",
      "type": "function"
    },
    {
      "inputs": [
        {
          "internalType": "address",
          "name": "newOwner",
          "type": "address"
        }
      ],
      "name": "transferOwnership",
      "outputs": [],
      "stateMutability": "nonpayable",
      "type": "function"
    },
    {
      "inputs": [
        {
          "internalType": "uint256",
          "name": "icuBeds",
          "type": "uint256"
        },
        {
          "internalType": "uint256",
          "name": "emergencyBeds",
          "type": "uint256"
        },
        {
          "internalType": "uint256",
          "name": "ventilators",
          "type": "uint256"
        }
      ],
      "name": "updateCapacity",
      "outputs": [],
      "stateMutability": "nonpayable",
      "type": "function"
    },
    {
      "inputs": [
        {
          "internalType": "address",
          "name": "hospitalAddress",
          "type": "address"
        },
        {
          "internalType": "uint256",
          "name": "icuBeds",
          "type": "uint256"
        },
        {
          "internalType": "uint256",
          "name": "emergencyBeds",
          "type": "uint256"
        },
        {
          "internalType": "uint256",
          "name": "ventilators",
          "type": "uint256"
        }
      ],
      "name": "updateCapacityFor",
      "outputs": [],
      "stateMutability": "nonpayable",
      "type": "function"
    },
    {
      "inputs": [
        {
          "internalType": "address",
          "name": "hospitalAddress",
          "type": "address"
        },
        {
          "internalType": "string[]",
          "name": "specialistTypes",
          "type": "string[]"
        },
        {
          "internalType": "uint256[]",
          "name": "counts",
          "type": "uint256[]"
        }
      ],
      "name": "updateHospitalPersonnel",
      "outputs": [],
      "stateMutability": "nonpayable",
      "type": "function"
    },
    {
      "inputs": [
        {
          "internalType": "string[]",
          "name": "specialistTypes",
          "type": "string[]"
        },
        {
          "internalType": "uint256[]",
          "name": "counts",
          "type": "uint256[]"
        }
      ],
      "name": "updateMedicalPersonnel",
      "outputs": [],
      "stateMutability": "nonpayable",
      "type": "function"
    },
    {
      "inputs": [
        {
          "internalType": "address",
          "name": "hospitalAddress",
          "type": "address"
        }
      ],
      "name": "verifyHospital",
      "outputs": [],
      "stateMutability": "nonpayable",
      "type": "function"
    }
  ],
  "bytecode": "0x60806040523480156200001157600080fd5b5062000032620000266200003860201b60201c565b6200004060201b60201c565b62000104565b600033905090565b60008060009054906101000a900473ffffffffffffffffffffffffffffffffffffffff169050816000806101000a81548173ffffffffffffffffffffffffffffffffffffffff021916908373ffffffffffffffffffffffffffffffffffffffff1602179055508173ffffffffffffffffffffffffffffffffffffffff168173ffffffffffffffffffffffffffffffffffffffff167f8be0079c531659141344cd1fd0a4f28419497f9722a3daafe3b4186f6b6457e060405160405180910390a35050565b6146b280620001146000396000f3fe608060405234801561001057600080fd5b50600436106101425760003560e01c806386896c54116100b85780639cbe60971161007c5780639cbe609714610388578063a5acb2fe146103a4578063d9ad2300146103d7578063f093cf8014610407578063f2fde38b1461043f578063fe45a81d1461045b57610142565b806386896c54146102d05780638bfe7eec146103025780638da5cb5b1461031e5780638e5acc2a1461033c5780638ff29cfe1461035857610142565b8063578d87601161010a578063578d8760146101fe5780635a8966ef1461022e578063674fe2e51461024a578063715018a61461027a5780637bfcef161461028457806381e5613e146102b457610142565b806309be997a146101475780632e8d9c0b146101775780633a7da9a3146101a757806346fab624146101c35780634e9f7154146101df575b600080fd5b610161600480360381019061015c9190612eb9565b610479565b60405161016e919061300c565b60405180910390f35b610191600480360381019061018c9190612eb9565b6105df565b60405161019e91906131d0565b60405180910390f35b6101c160048036038101906101bc91906131f2565b6107c3565b005b6101dd60048036038101906101d89190613245565b610ac9565b005b6101e7610c03565b6040516101f59291906135be565b60405180910390f35b6102186004803603810190610213919061372a565b6110e8565b6040516102259190613795565b60405180910390f35b61024860048036038101906102439190613959565b611123565b005b610264600480360381019061025f919061372a565b611413565b6040516102719190613795565b60405180910390f35b610282611509565b005b61029e600480360381019061029991906139e4565b61151d565b6040516102ab9190613a40565b60405180910390f35b6102ce60048036038101906102c99190613a62565b611a6c565b005b6102ea60048036038101906102e59190612eb9565b611d73565b6040516102f993929190613b13565b60405180910390f35b61031c60048036038101906103179190613b51565b611e42565b005b610326612352565b6040516103339190613c4b565b60405180910390f35b61035660048036038101906103519190613c66565b61237b565b005b610372600480360381019061036d9190613245565b612763565b60405161037f9190613ced565b60405180910390f35b6103a2600480360381019061039d9190613245565b612783565b005b6103be60048036038101906103b99190612eb9565b612840565b6040516103ce9493929190613d08565b60405180910390f35b6103f160048036038101906103ec9190613d4d565b61288d565b6040516103fe9190613c4b565b60405180910390f35b610421600480360381019061041c9190613245565b6128cc565b60405161043699989796959493929190613d7a565b60405180910390f35b61045960048036038101906104549190613245565b612abf565b005b610463612b42565b6040516104709190613795565b60405180910390f35b60606000600360008573ffffffffffffffffffffffffffffffffffffffff1673ffffffffffffffffffffffffffffffffffffffff1681526020019081526020016000209050600081805490509050808411156104d3578093505b60008467ffffffffffffffff8111156104ef576104ee6135ff565b5b60405190808252806020026020018201604052801561052857816020015b610515612c99565b81526020019060019003908161050d5790505b50905060005b858110156105d25783816001856105459190613e4b565b61054f9190613e4b565b815481106105605761055f613e7f565b5b90600052602060002090600402016040518060800160405290816000820154815260200160018201548152602001600282015481526020016003820154815250508282815181106105b4576105b3613e7f565b5b602002602001018190525080806105ca90613eae565b91505061052e565b5080935050505092915050565b60606000600560008573ffffffffffffffffffffffffffffffffffffffff1673ffffffffffffffffffffffffffffffffffffffff168152602001908152602001600020905060008180549050905080841115610639578093505b60008467ffffffffffffffff811115610655576106546135ff565b5b60405190808252806020026020018201604052801561068e57816020015b61067b612cc1565b8152602001906001900390816106735790505b50905060005b858110156107b65783816001856106ab9190613e4b565b6106b59190613e4b565b815481106106c6576106c5613e7f565b5b9060005260206000209060030201604051806060016040529081600082015481526020016001820180546106f990613f25565b80601f016020809104026020016040519081016040528092919081815260200182805461072590613f25565b80156107725780601f1061074757610100808354040283529160200191610772565b820191906000526020600020905b81548152906001019060200180831161075557829003601f168201915b5050505050815260200160028201548152505082828151811061079857610797613e7f565b5b602002602001018190525080806107ae90613eae565b915050610694565b5080935050505092915050565b338073ffffffffffffffffffffffffffffffffffffffff163373ffffffffffffffffffffffffffffffffffffffff1614806108305750610801612352565b73ffffffffffffffffffffffffffffffffffffffff163373ffffffffffffffffffffffffffffffffffffffff16145b806108845750600460003373ffffffffffffffffffffffffffffffffffffffff1673ffffffffffffffffffffffffffffffffffffffff16815260200190815260200160002060009054906101000a900460ff165b6108c3576040517f08c379a00000000000000000000000000000000000000000000000000000000081526004016108ba90613fc8565b60405180910390fd5b6000600260003373ffffffffffffffffffffffffffffffffffffffff1673ffffffffffffffffffffffffffffffffffffffff168152602001908152602001600020600001805461091290613f25565b905011610954576040517f08c379a000000000000000000000000000000000000000000000000000000000815260040161094b90614034565b60405180910390fd5b6000600260003373ffffffffffffffffffffffffffffffffffffffff1673ffffffffffffffffffffffffffffffffffffffff1681526020019081526020016000209050848160010181905550838160020181905550828160030181905550428160040181905550600360003373ffffffffffffffffffffffffffffffffffffffff1673ffffffffffffffffffffffffffffffffffffffff16815260200190815260200160002060405180608001604052804281526020018781526020018681526020018581525090806001815401808255809150506001900390600052602060002090600402016000909190919091506000820151816000015560208201518160010155604082015181600201556060820151816003015550503373ffffffffffffffffffffffffffffffffffffffff167fcae7b8c778b09141ba5152ca05bcedcfb13792266db33c9eded10c81d78c619f86868642604051610aba9493929190613d08565b60405180910390a25050505050565b610ad1612b4f565b6000600260008373ffffffffffffffffffffffffffffffffffffffff1673ffffffffffffffffffffffffffffffffffffffff1681526020019081526020016000206000018054610b2090613f25565b905011610b62576040517f08c379a0000000000000000000000000000000000000000000000000000000008152600401610b5990614034565b60405180910390fd5b6001600260008373ffffffffffffffffffffffffffffffffffffffff1673ffffffffffffffffffffffffffffffffffffffff16815260200190815260200160002060050160006101000a81548160ff0219169083151502179055508073ffffffffffffffffffffffffffffffffffffffff167ff474af46ed77eb03872a0d016133655c67f732a6d73a90ea7403bd4a79f8bcdf60405160405180910390a250565b60608060068054905067ffffffffffffffff811115610c2557610c246135ff565b5b604051908082528060200260200182016040528015610c535781602001602082028036833780820191505090505b50915060068054905067ffffffffffffffff811115610c7557610c746135ff565b5b604051908082528060200260200182016040528015610cae57816020015b610c9b612ce2565b815260200190600190039081610c935790505b50905060005b6006805490508110156110e35760068181548110610cd557610cd4613e7f565b5b9060005260206000200160009054906101000a900473ffffffffffffffffffffffffffffffffffffffff16838281518110610d1357610d12613e7f565b5b602002602001019073ffffffffffffffffffffffffffffffffffffffff16908173ffffffffffffffffffffffffffffffffffffffff16815250506002600060068381548110610d6557610d64613e7f565b5b9060005260206000200160009054906101000a900473ffffffffffffffffffffffffffffffffffffffff1673ffffffffffffffffffffffffffffffffffffffff1673ffffffffffffffffffffffffffffffffffffffff16815260200190815260200160002060405180610140016040529081600082018054610de690613f25565b80601f0160208091040260200160405190810160405280929190818152602001828054610e1290613f25565b8015610e5f5780601f10610e3457610100808354040283529160200191610e5f565b820191906000526020600020905b815481529060010190602001808311610e4257829003601f168201915b50505050508152602001600182015481526020016002820154815260200160038201548152602001600482015481526020016005820160009054906101000a900460ff1615151515815260200160068201805480602002602001604051908101604052809291908181526020016000905b82821015610f7c578382906000526020600020018054610eef90613f25565b80601f0160208091040260200160405190810160405280929190818152602001828054610f1b90613f25565b8015610f685780601f10610f3d57610100808354040283529160200191610f68565b820191906000526020600020905b815481529060010190602001808311610f4b57829003601f168201915b505050505081526020019060010190610ed0565b505050508152602001600782018054610f9490613f25565b80601f0160208091040260200160405190810160405280929190818152602001828054610fc090613f25565b801561100d5780601f10610fe25761010080835404028352916020019161100d565b820191906000526020600020905b815481529060010190602001808311610ff057829003601f168201915b5050505050815260200160088201805461102690613f25565b80601f016020809104026020016040519081016040528092919081815260200182805461105290613f25565b801561109f5780601f106110745761010080835404028352916020019161109f565b820191906000526020600020905b81548152906001019060200180831161108257829003601f168201915b505050505081526020016009820154815250508282815181106110c5576110c4613e7f565b5b602002602001018190525080806110db90613eae565b915050610cb4565b509091565b600160205281600052604060002081805160208101820180518482526020830160208501208183528095505050505050600091509150505481565b61112b612b4f565b6000600260008573ffffffffffffffffffffffffffffffffffffffff1673ffffffffffffffffffffffffffffffffffffffff168152602001908152602001600020600001805461117a90613f25565b9050116111bc576040517f08c379a00000000000000000000000000000000000000000000000000000000081526004016111b390614034565b60405180910390fd5b8051825114611200576040517f08c379a00000000000000000000000000000000000000000000000000000000081526004016111f7906140a0565b60405180910390fd5b6000600260008573ffffffffffffffffffffffffffffffffffffffff1673ffffffffffffffffffffffffffffffffffffffff168152602001908152602001600020905042816009018190555060005b835181101561140c57600084828151811061126d5761126c613e7f565b5b60200260200101519050600084838151811061128c5761128b613e7f565b5b6020026020010151905080600160008973ffffffffffffffffffffffffffffffffffffffff1673ffffffffffffffffffffffffffffffffffffffff168152602001908152602001600020836040516112e491906140fc565b908152602001604051809103902081905550600560008873ffffffffffffffffffffffffffffffffffffffff1673ffffffffffffffffffffffffffffffffffffffff168152602001908152602001600020604051806060016040528042815260200184815260200183815250908060018154018082558091505060019003906000526020600020906003020160009091909190915060008201518160000155602082015181600101908161139891906142bf565b506040820151816002015550508673ffffffffffffffffffffffffffffffffffffffff167f29c8123a2b07659c8cb233d7009572a605017128081300d7f357a49d2a8aecd48383426040516113ef93929190614391565b60405180910390a25050808061140490613eae565b91505061124f565b5050505050565b600080600260008573ffffffffffffffffffffffffffffffffffffffff1673ffffffffffffffffffffffffffffffffffffffff168152602001908152602001600020600001805461146390613f25565b9050116114a5576040517f08c379a000000000000000000000000000000000000000000000000000000000815260040161149c90614034565b60405180910390fd5b600160008473ffffffffffffffffffffffffffffffffffffffff1673ffffffffffffffffffffffffffffffffffffffff168152602001908152602001600020826040516114f291906140fc565b908152602001604051809103902054905092915050565b611511612b4f565b61151b6000612bcd565b565b6060600060068054905067ffffffffffffffff8111156115405761153f6135ff565b5b60405190808252806020026020018201604052801561156e5781602001602082028036833780820191505090505b5090506000805b60068054905081101561198b5760006006828154811061159857611597613e7f565b5b9060005260206000200160009054906101000a900473ffffffffffffffffffffffffffffffffffffffff1690506000600260008373ffffffffffffffffffffffffffffffffffffffff1673ffffffffffffffffffffffffffffffffffffffff1681526020019081526020016000206040518061014001604052908160008201805461162290613f25565b80601f016020809104026020016040519081016040528092919081815260200182805461164e90613f25565b801561169b5780601f106116705761010080835404028352916020019161169b565b820191906000526020600020905b81548152906001019060200180831161167e57829003601f168201915b50505050508152602001600182015481526020016002820154815260200160038201548152602001600482015481526020016005820160009054906101000a900460ff1615151515815260200160068201805480602002602001604051908101604052809291908181526020016000905b828210156117b857838290600052602060002001805461172b90613f25565b80601f016020809104026020016040519081016040528092919081815260200182805461175790613f25565b80156117a45780601f10611779576101008083540402835291602001916117a4565b820191906000526020600020905b81548152906001019060200180831161178757829003601f168201915b50505050508152602001906001019061170c565b5050505081526020016007820180546117d090613f25565b80601f01602080910402602001604051908101604052809291908181526020018280546117fc90613f25565b80156118495780601f1061181e57610100808354040283529160200191611849565b820191906000526020600020905b81548152906001019060200180831161182c57829003601f168201915b5050505050815260200160088201805461186290613f25565b80601f016020809104026020016040519081016040528092919081815260200182805461188e90613f25565b80156118db5780601f106118b0576101008083540402835291602001916118db565b820191906000526020600020905b8154815290600101906020018083116118be57829003601f168201915b5050505050815260200160098201548152505090508060a0015180156119145750868160400151826020015161191191906143cf565b10155b15611976578185858151811061192d5761192c613e7f565b5b602002602001019073ffffffffffffffffffffffffffffffffffffffff16908173ffffffffffffffffffffffffffffffffffffffff1681525050838061197290613eae565b9450505b5050808061198390613eae565b915050611575565b5060008167ffffffffffffffff8111156119a8576119a76135ff565b5b6040519080825280602002602001820160405280156119d65781602001602082028036833780820191505090505b50905060005b82811015611a5f578381815181106119f7576119f6613e7f565b5b6020026020010151828281518110611a1257611a11613e7f565b5b602002602001019073ffffffffffffffffffffffffffffffffffffffff16908173ffffffffffffffffffffffffffffffffffffffff16815250508080611a5790613eae565b9150506119dc565b5080935050505092915050565b838073ffffffffffffffffffffffffffffffffffffffff163373ffffffffffffffffffffffffffffffffffffffff161480611ad95750611aaa612352565b73ffffffffffffffffffffffffffffffffffffffff163373ffffffffffffffffffffffffffffffffffffffff16145b80611b2d5750600460003373ffffffffffffffffffffffffffffffffffffffff1673ffffffffffffffffffffffffffffffffffffffff16815260200190815260200160002060009054906101000a900460ff165b611b6c576040517f08c379a0000000000000000000000000000000000000000000000000000000008152600401611b6390613fc8565b60405180910390fd5b6000600260008773ffffffffffffffffffffffffffffffffffffffff1673ffffffffffffffffffffffffffffffffffffffff1681526020019081526020016000206000018054611bbb90613f25565b905011611bfd576040517f08c379a0000000000000000000000000000000000000000000000000000000008152600401611bf490614034565b60405180910390fd5b6000600260008773ffffffffffffffffffffffffffffffffffffffff1673ffffffffffffffffffffffffffffffffffffffff1681526020019081526020016000209050848160010181905550838160020181905550828160030181905550428160040181905550600360008773ffffffffffffffffffffffffffffffffffffffff1673ffffffffffffffffffffffffffffffffffffffff16815260200190815260200160002060405180608001604052804281526020018781526020018681526020018581525090806001815401808255809150506001900390600052602060002090600402016000909190919091506000820151816000015560208201518160010155604082015181600201556060820151816003015550508573ffffffffffffffffffffffffffffffffffffffff167fcae7b8c778b09141ba5152ca05bcedcfb13792266db33c9eded10c81d78c619f86868642604051611d639493929190613d08565b60405180910390a2505050505050565b60056020528160005260406000208181548110611d8f57600080fd5b906000526020600020906003020160009150915050806000015490806001018054611db990613f25565b80601f0160208091040260200160405190810160405280929190818152602001828054611de590613f25565b8015611e325780601f10611e0757610100808354040283529160200191611e32565b820191906000526020600020905b815481529060010190602001808311611e1557829003601f168201915b5050505050908060020154905083565b611e4a612b4f565b600073ffffffffffffffffffffffffffffffffffffffff168573ffffffffffffffffffffffffffffffffffffffff1603611eb9576040517f08c379a0000000000000000000000000000000000000000000000000000000008152600401611eb09061444f565b60405180910390fd5b6000845111611efd576040517f08c379a0000000000000000000000000000000000000000000000000000000008152600401611ef4906144bb565b60405180910390fd5b6000600260008773ffffffffffffffffffffffffffffffffffffffff1673ffffffffffffffffffffffffffffffffffffffff1681526020019081526020016000206000018054611f4c90613f25565b905014611f8e576040517f08c379a0000000000000000000000000000000000000000000000000000000008152600401611f8590614527565b60405180910390fd5b83600260008773ffffffffffffffffffffffffffffffffffffffff1673ffffffffffffffffffffffffffffffffffffffff1681526020019081526020016000206000019081611fdd91906142bf565b506000600260008773ffffffffffffffffffffffffffffffffffffffff1673ffffffffffffffffffffffffffffffffffffffff168152602001908152602001600020600101819055506000600260008773ffffffffffffffffffffffffffffffffffffffff1673ffffffffffffffffffffffffffffffffffffffff168152602001908152602001600020600201819055506000600260008773ffffffffffffffffffffffffffffffffffffffff1673ffffffffffffffffffffffffffffffffffffffff168152602001908152602001600020600301819055506000600260008773ffffffffffffffffffffffffffffffffffffffff1673ffffffffffffffffffffffffffffffffffffffff168152602001908152602001600020600401819055506000600260008773ffffffffffffffffffffffffffffffffffffffff1673ffffffffffffffffffffffffffffffffffffffff16815260200190815260200160002060050160006101000a81548160ff02191690831515021790555081600260008773ffffffffffffffffffffffffffffffffffffffff1673ffffffffffffffffffffffffffffffffffffffff16815260200190815260200160002060060190805190602001906121af929190612d37565b5082600260008773ffffffffffffffffffffffffffffffffffffffff1673ffffffffffffffffffffffffffffffffffffffff16815260200190815260200160002060070190816121ff91906142bf565b5080600260008773ffffffffffffffffffffffffffffffffffffffff1673ffffffffffffffffffffffffffffffffffffffff168152602001908152602001600020600801908161224f91906142bf565b506000600260008773ffffffffffffffffffffffffffffffffffffffff1673ffffffffffffffffffffffffffffffffffffffff168152602001908152602001600020600901819055506006859080600181540180825580915050600190039060005260206000200160009091909190916101000a81548173ffffffffffffffffffffffffffffffffffffffff021916908373ffffffffffffffffffffffffffffffffffffffff1602179055508473ffffffffffffffffffffffffffffffffffffffff167f628ba2fd5877ba0e6d4fb27dcc1d0fe28675ed8d2624e5cb3accda5f4c2250048585604051612343929190614547565b60405180910390a25050505050565b60008060009054906101000a900473ffffffffffffffffffffffffffffffffffffffff16905090565b338073ffffffffffffffffffffffffffffffffffffffff163373ffffffffffffffffffffffffffffffffffffffff1614806123e857506123b9612352565b73ffffffffffffffffffffffffffffffffffffffff163373ffffffffffffffffffffffffffffffffffffffff16145b8061243c5750600460003373ffffffffffffffffffffffffffffffffffffffff1673ffffffffffffffffffffffffffffffffffffffff16815260200190815260200160002060009054906101000a900460ff165b61247b576040517f08c379a000000000000000000000000000000000000000000000000000000000815260040161247290613fc8565b60405180910390fd5b6000600260003373ffffffffffffffffffffffffffffffffffffffff1673ffffffffffffffffffffffffffffffffffffffff16815260200190815260200160002060000180546124ca90613f25565b90501161250c576040517f08c379a000000000000000000000000000000000000000000000000000000000815260040161250390614034565b60405180910390fd5b8151835114612550576040517f08c379a0000000000000000000000000000000000000000000000000000000008152600401612547906140a0565b60405180910390fd5b6000600260003373ffffffffffffffffffffffffffffffffffffffff1673ffffffffffffffffffffffffffffffffffffffff168152602001908152602001600020905042816009018190555060005b845181101561275c5760008582815181106125bd576125bc613e7f565b5b6020026020010151905060008583815181106125dc576125db613e7f565b5b6020026020010151905080600160003373ffffffffffffffffffffffffffffffffffffffff1673ffffffffffffffffffffffffffffffffffffffff1681526020019081526020016000208360405161263491906140fc565b908152602001604051809103902081905550600560003373ffffffffffffffffffffffffffffffffffffffff1673ffffffffffffffffffffffffffffffffffffffff16815260200190815260200160002060405180606001604052804281526020018481526020018381525090806001815401808255809150506001900390600052602060002090600302016000909190919091506000820151816000015560208201518160010190816126e891906142bf565b506040820151816002015550503373ffffffffffffffffffffffffffffffffffffffff167f29c8123a2b07659c8cb233d7009572a605017128081300d7f357a49d2a8aecd483834260405161273f93929190614391565b60405180910390a25050808061275490613eae565b91505061259f565b5050505050565b60046020528060005260406000206000915054906101000a900460ff1681565b61278b612b4f565b6001600460008373ffffffffffffffffffffffffffffffffffffffff1673ffffffffffffffffffffffffffffffffffffffff16815260200190815260200160002060006101000a81548160ff0219169083151502179055503373ffffffffffffffffffffffffffffffffffffffff168173ffffffffffffffffffffffffffffffffffffffff167f6e1029808147e9e8a9c0bc9ea4db403ca5c427eeb8c79d1af1169e4f41ae059360405160405180910390a350565b6003602052816000526040600020818154811061285c57600080fd5b9060005260206000209060040201600091509150508060000154908060010154908060020154908060030154905084565b6006818154811061289d57600080fd5b906000526020600020016000915054906101000a900473ffffffffffffffffffffffffffffffffffffffff1681565b60026020528060005260406000206000915090508060000180546128ef90613f25565b80601f016020809104026020016040519081016040528092919081815260200182805461291b90613f25565b80156129685780601f1061293d57610100808354040283529160200191612968565b820191906000526020600020905b81548152906001019060200180831161294b57829003601f168201915b5050505050908060010154908060020154908060030154908060040154908060050160009054906101000a900460ff16908060070180546129a890613f25565b80601f01602080910402602001604051908101604052809291908181526020018280546129d490613f25565b8015612a215780601f106129f657610100808354040283529160200191612a21565b820191906000526020600020905b815481529060010190602001808311612a0457829003601f168201915b505050505090806008018054612a3690613f25565b80601f0160208091040260200160405190810160405280929190818152602001828054612a6290613f25565b8015612aaf5780601f10612a8457610100808354040283529160200191612aaf565b820191906000526020600020905b815481529060010190602001808311612a9257829003601f168201915b5050505050908060090154905089565b612ac7612b4f565b600073ffffffffffffffffffffffffffffffffffffffff168173ffffffffffffffffffffffffffffffffffffffff1603612b36576040517f08c379a0000000000000000000000000000000000000000000000000000000008152600401612b2d906145f0565b60405180910390fd5b612b3f81612bcd565b50565b6000600680549050905090565b612b57612c91565b73ffffffffffffffffffffffffffffffffffffffff16612b75612352565b73ffffffffffffffffffffffffffffffffffffffff1614612bcb576040517f08c379a0000000000000000000000000000000000000000000000000000000008152600401612bc29061465c565b60405180910390fd5b565b60008060009054906101000a900473ffffffffffffffffffffffffffffffffffffffff169050816000806101000a81548173ffffffffffffffffffffffffffffffffffffffff021916908373ffffffffffffffffffffffffffffffffffffffff1602179055508173ffffffffffffffffffffffffffffffffffffffff168173ffffffffffffffffffffffffffffffffffffffff167f8be0079c531659141344cd1fd0a4f28419497f9722a3daafe3b4186f6b6457e060405160405180910390a35050565b600033905090565b6040518060800160405280600081526020016000815260200160008152602001600081525090565b60405180606001604052806000815260200160608152602001600081525090565b6040518061014001604052806060815260200160008152602001600081526020016000815260200160008152602001600015158152602001606081526020016060815260200160608152602001600081525090565b828054828255906000526020600020908101928215612d7f579160200282015b82811115612d7e578251829081612d6e91906142bf565b5091602001919060010190612d57565b5b509050612d8c9190612d90565b5090565b5b80821115612db05760008181612da79190612db4565b50600101612d91565b5090565b508054612dc090613f25565b6000825580601f10612dd25750612df1565b601f016020900490600052602060002090810190612df09190612df4565b5b50565b5b80821115612e0d576000816000905550600101612df5565b5090565b6000604051905090565b600080fd5b600080fd5b600073ffffffffffffffffffffffffffffffffffffffff82169050919050565b6000612e5082612e25565b9050919050565b612e6081612e45565b8114612e6b57600080fd5b50565b600081359050612e7d81612e57565b92915050565b6000819050919050565b612e9681612e83565b8114612ea157600080fd5b50565b600081359050612eb381612e8d565b92915050565b60008060408385031215612ed057612ecf612e1b565b5b6000612ede85828601612e6e565b9250506020612eef85828601612ea4565b9150509250929050565b600081519050919050565b600082825260208201905092915050565b6000819050602082019050919050565b612f2e81612e83565b82525050565b608082016000820151612f4a6000850182612f25565b506020820151612f5d6020850182612f25565b506040820151612f706040850182612f25565b506060820151612f836060850182612f25565b50505050565b6000612f958383612f34565b60808301905092915050565b6000602082019050919050565b6000612fb982612ef9565b612fc38185612f04565b9350612fce83612f15565b8060005b83811015612fff578151612fe68882612f89565b9750612ff183612fa1565b925050600181019050612fd2565b5085935050505092915050565b600060208201905081810360008301526130268184612fae565b905092915050565b600081519050919050565b600082825260208201905092915050565b6000819050602082019050919050565b600081519050919050565b600082825260208201905092915050565b60005b83811015613094578082015181840152602081019050613079565b60008484015250505050565b6000601f19601f8301169050919050565b60006130bc8261305a565b6130c68185613065565b93506130d6818560208601613076565b6130df816130a0565b840191505092915050565b60006060830160008301516131026000860182612f25565b506020830151848203602086015261311a82826130b1565b915050604083015161312f6040860182612f25565b508091505092915050565b600061314683836130ea565b905092915050565b6000602082019050919050565b60006131668261302e565b6131708185613039565b9350836020820285016131828561304a565b8060005b858110156131be578484038952815161319f858261313a565b94506131aa8361314e565b925060208a01995050600181019050613186565b50829750879550505050505092915050565b600060208201905081810360008301526131ea818461315b565b905092915050565b60008060006060848603121561320b5761320a612e1b565b5b600061321986828701612ea4565b935050602061322a86828701612ea4565b925050604061323b86828701612ea4565b9150509250925092565b60006020828403121561325b5761325a612e1b565b5b600061326984828501612e6e565b91505092915050565b600081519050919050565b600082825260208201905092915050565b6000819050602082019050919050565b6132a781612e45565b82525050565b60006132b9838361329e565b60208301905092915050565b6000602082019050919050565b60006132dd82613272565b6132e7818561327d565b93506132f28361328e565b8060005b8381101561332357815161330a88826132ad565b9750613315836132c5565b9250506001810190506132f6565b5085935050505092915050565b600081519050919050565b600082825260208201905092915050565b6000819050602082019050919050565b60008115159050919050565b6133718161335c565b82525050565b600081519050919050565b600082825260208201905092915050565b6000819050602082019050919050565b60006133af83836130b1565b905092915050565b6000602082019050919050565b60006133cf82613377565b6133d98185613382565b9350836020820285016133eb85613393565b8060005b85811015613427578484038952815161340885826133a3565b9450613413836133b7565b925060208a019950506001810190506133ef565b50829750879550505050505092915050565b600061014083016000830151848203600086015261345782826130b1565b915050602083015161346c6020860182612f25565b50604083015161347f6040860182612f25565b5060608301516134926060860182612f25565b5060808301516134a56080860182612f25565b5060a08301516134b860a0860182613368565b5060c083015184820360c08601526134d082826133c4565b91505060e083015184820360e08601526134ea82826130b1565b91505061010083015184820361010086015261350682826130b1565b91505061012083015161351d610120860182612f25565b508091505092915050565b60006135348383613439565b905092915050565b6000602082019050919050565b600061355482613330565b61355e818561333b565b9350836020820285016135708561334c565b8060005b858110156135ac578484038952815161358d8582613528565b94506135988361353c565b925060208a01995050600181019050613574565b50829750879550505050505092915050565b600060408201905081810360008301526135d881856132d2565b905081810360208301526135ec8184613549565b90509392505050565b600080fd5b600080fd5b7f4e487b7100000000000000000000000000000000000000000000000000000000600052604160045260246000fd5b613637826130a0565b810181811067ffffffffffffffff82111715613656576136556135ff565b5b80604052505050565b6000613669612e11565b9050613675828261362e565b919050565b600067ffffffffffffffff821115613695576136946135ff565b5b61369e826130a0565b9050602081019050919050565b82818337600083830152505050565b60006136cd6136c88461367a565b61365f565b9050828152602081018484840111156136e9576136e86135fa565b5b6136f48482856136ab565b509392505050565b600082601f830112613711576137106135f5565b5b81356137218482602086016136ba565b91505092915050565b6000806040838503121561374157613740612e1b565b5b600061374f85828601612e6e565b925050602083013567ffffffffffffffff8111156137705761376f612e20565b5b61377c858286016136fc565b9150509250929050565b61378f81612e83565b82525050565b60006020820190506137aa6000830184613786565b92915050565b600067ffffffffffffffff8211156137cb576137ca6135ff565b5b602082029050602081019050919050565b600080fd5b60006137f46137ef846137b0565b61365f565b90508083825260208201905060208402830185811115613817576138166137dc565b5b835b8181101561385e57803567ffffffffffffffff81111561383c5761383b6135f5565b5b80860161384989826136fc565b85526020850194505050602081019050613819565b5050509392505050565b600082601f83011261387d5761387c6135f5565b5b813561388d8482602086016137e1565b91505092915050565b600067ffffffffffffffff8211156138b1576138b06135ff565b5b602082029050602081019050919050565b60006138d56138d084613896565b61365f565b905080838252602082019050602084028301858111156138f8576138f76137dc565b5b835b81811015613921578061390d8882612ea4565b8452602084019350506020810190506138fa565b5050509392505050565b600082601f8301126139405761393f6135f5565b5b81356139508482602086016138c2565b91505092915050565b60008060006060848603121561397257613971612e1b565b5b600061398086828701612e6e565b935050602084013567ffffffffffffffff8111156139a1576139a0612e20565b5b6139ad86828701613868565b925050604084013567ffffffffffffffff8111156139ce576139cd612e20565b5b6139da8682870161392b565b9150509250925092565b600080604083850312156139fb576139fa612e1b565b5b600083013567ffffffffffffffff811115613a1957613a18612e20565b5b613a25858286016136fc565b9250506020613a3685828601612ea4565b9150509250929050565b60006020820190508181036000830152613a5a81846132d2565b905092915050565b60008060008060808587031215613a7c57613a7b612e1b565b5b6000613a8a87828801612e6e565b9450506020613a9b87828801612ea4565b9350506040613aac87828801612ea4565b9250506060613abd87828801612ea4565b91505092959194509250565b600082825260208201905092915050565b6000613ae58261305a565b613aef8185613ac9565b9350613aff818560208601613076565b613b08816130a0565b840191505092915050565b6000606082019050613b286000830186613786565b8181036020830152613b3a8185613ada565b9050613b496040830184613786565b949350505050565b600080600080600060a08688031215613b6d57613b6c612e1b565b5b6000613b7b88828901612e6e565b955050602086013567ffffffffffffffff811115613b9c57613b9b612e20565b5b613ba8888289016136fc565b945050604086013567ffffffffffffffff811115613bc957613bc8612e20565b5b613bd5888289016136fc565b935050606086013567ffffffffffffffff811115613bf657613bf5612e20565b5b613c0288828901613868565b925050608086013567ffffffffffffffff811115613c2357613c22612e20565b5b613c2f888289016136fc565b9150509295509295909350565b613c4581612e45565b82525050565b6000602082019050613c606000830184613c3c565b92915050565b60008060408385031215613c7d57613c7c612e1b565b5b600083013567ffffffffffffffff811115613c9b57613c9a612e20565b5b613ca785828601613868565b925050602083013567ffffffffffffffff811115613cc857613cc7612e20565b5b613cd48582860161392b565b9150509250929050565b613ce78161335c565b82525050565b6000602082019050613d026000830184613cde565b92915050565b6000608082019050613d1d6000830187613786565b613d2a6020830186613786565b613d376040830185613786565b613d446060830184613786565b95945050505050565b600060208284031215613d6357613d62612e1b565b5b6000613d7184828501612ea4565b91505092915050565b6000610120820190508181036000830152613d95818c613ada565b9050613da4602083018b613786565b613db1604083018a613786565b613dbe6060830189613786565b613dcb6080830188613786565b613dd860a0830187613cde565b81810360c0830152613dea8186613ada565b905081810360e0830152613dfe8185613ada565b9050613e0e610100830184613786565b9a9950505050505050505050565b7f4e487b7100000000000000000000000000000000000000000000000000000000600052601160045260246000fd5b6000613e5682612e83565b9150613e6183612e83565b9250828203905081811115613e7957613e78613e1c565b5b92915050565b7f4e487b7100000000000000000000000000000000000000000000000000000000600052603260045260246000fd5b6000613eb982612e83565b91507fffffffffffffffffffffffffffffffffffffffffffffffffffffffffffffffff8203613eeb57613eea613e1c565b5b600182019050919050565b7f4e487b7100000000000000000000000000000000000000000000000000000000600052602260045260246000fd5b60006002820490506001821680613f3d57607f821691505b602082108103613f5057613f4f613ef6565b5b50919050565b7f4e6f7420617574686f72697a656420746f20757064617465207468697320686f60008201527f73706974616c0000000000000000000000000000000000000000000000000000602082015250565b6000613fb2602683613ac9565b9150613fbd82613f56565b604082019050919050565b60006020820190508181036000830152613fe181613fa5565b9050919050565b7f486f73706974616c206e6f742072656769737465726564000000000000000000600082015250565b600061401e601783613ac9565b915061402982613fe8565b602082019050919050565b6000602082019050818103600083015261404d81614011565b9050919050565b7f417272617973206c656e677468206d69736d6174636800000000000000000000600082015250565b600061408a601683613ac9565b915061409582614054565b602082019050919050565b600060208201905081810360008301526140b98161407d565b9050919050565b600081905092915050565b60006140d68261305a565b6140e081856140c0565b93506140f0818560208601613076565b80840191505092915050565b600061410882846140cb565b915081905092915050565b60008190508160005260206000209050919050565b60006020601f8301049050919050565b600082821b905092915050565b6000600883026141757fffffffffffffffffffffffffffffffffffffffffffffffffffffffffffffffff82614138565b61417f8683614138565b95508019841693508086168417925050509392505050565b6000819050919050565b60006141bc6141b76141b284612e83565b614197565b612e83565b9050919050565b6000819050919050565b6141d6836141a1565b6141ea6141e2826141c3565b848454614145565b825550505050565b600090565b6141ff6141f2565b61420a8184846141cd565b505050565b5b8181101561422e576142236000826141f7565b600181019050614210565b5050565b601f8211156142735761424481614113565b61424d84614128565b8101602085101561425c578190505b61427061426885614128565b83018261420f565b50505b505050565b600082821c905092915050565b600061429660001984600802614278565b1980831691505092915050565b60006142af8383614285565b9150826002028217905092915050565b6142c88261305a565b67ffffffffffffffff8111156142e1576142e06135ff565b5b6142eb8254613f25565b6142f6828285614232565b600060209050601f8311600181146143295760008415614317578287015190505b61432185826142a3565b865550614389565b601f19841661433786614113565b60005b8281101561435f5784890151825560018201915060208501945060208101905061433a565b8683101561437c5784890151614378601f891682614285565b8355505b6001600288020188555050505b505050505050565b600060608201905081810360008301526143ab8186613ada565b90506143ba6020830185613786565b6143c76040830184613786565b949350505050565b60006143da82612e83565b91506143e583612e83565b92508282019050808211156143fd576143fc613e1c565b5b92915050565b7f496e76616c696420686f73706974616c20616464726573730000000000000000600082015250565b6000614439601883613ac9565b915061444482614403565b602082019050919050565b600060208201905081810360008301526144688161442c565b9050919050565b7f4e616d652063616e6e6f7420626520656d707479000000000000000000000000600082015250565b60006144a5601483613ac9565b91506144b08261446f565b602082019050919050565b600060208201905081810360008301526144d481614498565b9050919050565b7f486f73706974616c20616c726561647920726567697374657265640000000000600082015250565b6000614511601b83613ac9565b915061451c826144db565b602082019050919050565b6000602082019050818103600083015261454081614504565b9050919050565b600060408201905081810360008301526145618185613ada565b905081810360208301526145758184613ada565b90509392505050565b7f4f776e61626c653a206e6577206f776e657220697320746865207a65726f206160008201527f6464726573730000000000000000000000000000000000000000000000000000602082015250565b60006145da602683613ac9565b91506145e58261457e565b604082019050919050565b60006020820190508181036000830152614609816145cd565b9050919050565b7f4f776e61626c653a2063616c6c6572206973206e6f7420746865206f776e6572600082015250565b6000614646602083613ac9565b915061465182614610565b602082019050919050565b6000602082019050818103600083015261467581614639565b905091905056fea2646970667358221220bfc6bc862ea701c6db4d158e0c7770a9ae1012ff16dc681a39f932727709b88b64736f6c63430008130033",
  "linkReferences": {},
  "deployedLinkReferences": {}
}